{
  "contracts/ImageDatabase.sol": {
    "ImageDatabase": {
      "abi": [
        {
          "inputs": [],
          "stateMutability": "nonpayable",
          "type": "constructor"
        },
        {
          "anonymous": false,
          "inputs": [
            {
              "indexed": false,
              "internalType": "address payable",
              "name": "author",
              "type": "address"
            },
            {
              "indexed": false,
              "internalType": "string",
              "name": "hash",
              "type": "string"
            },
            {
              "indexed": false,
              "internalType": "string",
              "name": "description",
              "type": "string"
            },
            {
              "indexed": false,
              "internalType": "uint256",
              "name": "id",
              "type": "uint256"
            },
            {
              "indexed": false,
              "internalType": "uint256",
              "name": "tipAmount",
              "type": "uint256"
            }
          ],
          "name": "ImageCreated",
          "type": "event"
        },
        {
          "inputs": [
            {
              "internalType": "uint256",
              "name": "",
              "type": "uint256"
            }
          ],
          "name": "images",
          "outputs": [
            {
              "internalType": "address payable",
              "name": "author",
              "type": "address"
            },
            {
              "internalType": "string",
              "name": "hash",
              "type": "string"
            },
            {
              "internalType": "string",
              "name": "description",
              "type": "string"
            },
            {
              "internalType": "uint256",
              "name": "tipAmount",
              "type": "uint256"
            },
            {
              "internalType": "uint256",
              "name": "tipGoal",
              "type": "uint256"
            }
          ],
          "stateMutability": "view",
          "type": "function"
        },
        {
          "inputs": [],
          "name": "name",
          "outputs": [
            {
              "internalType": "string",
              "name": "",
              "type": "string"
            }
          ],
          "stateMutability": "view",
          "type": "function"
        },
        {
          "inputs": [],
          "name": "numImage",
          "outputs": [
            {
              "internalType": "uint256",
              "name": "",
              "type": "uint256"
            }
          ],
          "stateMutability": "view",
          "type": "function"
        },
        {
          "inputs": [
            {
              "internalType": "string",
              "name": "_imgHash",
              "type": "string"
            },
            {
              "internalType": "string",
              "name": "_imgDescription",
              "type": "string"
            }
          ],
          "name": "uploadImage",
          "outputs": [],
          "stateMutability": "nonpayable",
          "type": "function"
        }
      ],
      "devdoc": {
        "kind": "dev",
        "methods": {},
        "version": 1
      },
      "evm": {
        "bytecode": {
          "linkReferences": {},
          "object": "60c0604052600d60808190526c496d616765446174616261736560981b60a090815261002e9160009190610046565b50600060015534801561004057600080fd5b5061011a565b828054610052906100df565b90600052602060002090601f01602090048101928261007457600085556100ba565b82601f1061008d57805160ff19168380011785556100ba565b828001600101855582156100ba579182015b828111156100ba57825182559160200191906001019061009f565b506100c69291506100ca565b5090565b5b808211156100c657600081556001016100cb565b6002810460018216806100f357607f821691505b6020821081141561011457634e487b7160e01b600052602260045260246000fd5b50919050565b6106bb806101296000396000f3fe608060405234801561001057600080fd5b506004361061004c5760003560e01c806306fdde0314610051578063848564821461006f578063a91b831414610093578063c65f7205146100a8575b600080fd5b6100596100bd565b60405161006691906105ea565b60405180910390f35b61008261007d36600461053c565b61014b565b60405161006695949392919061059f565b6100a66100a13660046104db565b610294565b005b6100b06103b5565b6040516100669190610604565b600080546100ca9061060d565b80601f01602080910402602001604051908101604052809291908181526020018280546100f69061060d565b80156101435780601f1061011857610100808354040283529160200191610143565b820191906000526020600020905b81548152906001019060200180831161012657829003601f168201915b505050505081565b600260205260009081526040902080546001820180546001600160a01b0390921692916101779061060d565b80601f01602080910402602001604051908101604052809291908181526020018280546101a39061060d565b80156101f05780601f106101c5576101008083540402835291602001916101f0565b820191906000526020600020905b8154815290600101906020018083116101d357829003601f168201915b5050505050908060020180546102059061060d565b80601f01602080910402602001604051908101604052809291908181526020018280546102319061060d565b801561027e5780601f106102535761010080835404028352916020019161027e565b820191906000526020600020905b81548152906001019060200180831161026157829003601f168201915b5050505050908060030154908060040154905085565b60008251116102a257600080fd5b60008151116102b057600080fd5b336102ba57600080fd5b600180549060006102ca83610648565b90915550506040805160a08101825233815260208082018581528284018590526000606084018190526080840181905260018054825260028452949020835181546001600160a01b0319166001600160a01b03909116178155905180519394919361033d939285019291909101906103bb565b50604082015180516103599160028401916020909101906103bb565b5060608201518160030155608082015181600401559050507fa618a6562da55f1b9488499b3311d789eb26c55486d19378b4bc6aba964825e33383836000806040516103a995949392919061059f565b60405180910390a15050565b60015481565b8280546103c79061060d565b90600052602060002090601f0160209004810192826103e9576000855561042f565b82601f1061040257805160ff191683800117855561042f565b8280016001018555821561042f579182015b8281111561042f578251825591602001919060010190610414565b5061043b92915061043f565b5090565b5b8082111561043b5760008155600101610440565b600082601f830112610464578081fd5b813567ffffffffffffffff8082111561047f5761047f61066f565b604051601f8301601f19908116603f011681019082821181831017156104a7576104a761066f565b816040528381528660208588010111156104bf578485fd5b8360208701602083013792830160200193909352509392505050565b600080604083850312156104ed578182fd5b823567ffffffffffffffff80821115610504578384fd5b61051086838701610454565b93506020850135915080821115610525578283fd5b5061053285828601610454565b9150509250929050565b60006020828403121561054d578081fd5b5035919050565b60008151808452815b818110156105795760208185018101518683018201520161055d565b8181111561058a5782602083870101525b50601f01601f19169290920160200192915050565b6001600160a01b038616815260a0602082018190526000906105c390830187610554565b82810360408401526105d58187610554565b60608401959095525050608001529392505050565b6000602082526105fd6020830184610554565b9392505050565b90815260200190565b60028104600182168061062157607f821691505b6020821081141561064257634e487b7160e01b600052602260045260246000fd5b50919050565b600060001982141561066857634e487b7160e01b81526011600452602481fd5b5060010190565b634e487b7160e01b600052604160045260246000fdfea2646970667358221220e764414247c072a7695e6e7cf5c50ef071e7526dcf0e43a0c28c53d5eb69142764736f6c63430008010033",
          "opcodes": "PUSH1 0xC0 PUSH1 0x40 MSTORE PUSH1 0xD PUSH1 0x80 DUP2 SWAP1 MSTORE PUSH13 0x496D6167654461746162617365 PUSH1 0x98 SHL PUSH1 0xA0 SWAP1 DUP2 MSTORE PUSH2 0x2E SWAP2 PUSH1 0x0 SWAP2 SWAP1 PUSH2 0x46 JUMP JUMPDEST POP PUSH1 0x0 PUSH1 0x1 SSTORE CALLVALUE DUP1 ISZERO PUSH2 0x40 JUMPI PUSH1 0x0 DUP1 REVERT JUMPDEST POP PUSH2 0x11A JUMP JUMPDEST DUP3 DUP1 SLOAD PUSH2 0x52 SWAP1 PUSH2 0xDF JUMP JUMPDEST SWAP1 PUSH1 0x0 MSTORE PUSH1 0x20 PUSH1 0x0 KECCAK256 SWAP1 PUSH1 0x1F ADD PUSH1 0x20 SWAP1 DIV DUP2 ADD SWAP3 DUP3 PUSH2 0x74 JUMPI PUSH1 0x0 DUP6 SSTORE PUSH2 0xBA JUMP JUMPDEST DUP3 PUSH1 0x1F LT PUSH2 0x8D JUMPI DUP1 MLOAD PUSH1 0xFF NOT AND DUP4 DUP1 ADD OR DUP6 SSTORE PUSH2 0xBA JUMP JUMPDEST DUP3 DUP1 ADD PUSH1 0x1 ADD DUP6 SSTORE DUP3 ISZERO PUSH2 0xBA JUMPI SWAP2 DUP3 ADD JUMPDEST DUP3 DUP2 GT ISZERO PUSH2 0xBA JUMPI DUP3 MLOAD DUP3 SSTORE SWAP2 PUSH1 0x20 ADD SWAP2 SWAP1 PUSH1 0x1 ADD SWAP1 PUSH2 0x9F JUMP JUMPDEST POP PUSH2 0xC6 SWAP3 SWAP2 POP PUSH2 0xCA JUMP JUMPDEST POP SWAP1 JUMP JUMPDEST JUMPDEST DUP1 DUP3 GT ISZERO PUSH2 0xC6 JUMPI PUSH1 0x0 DUP2 SSTORE PUSH1 0x1 ADD PUSH2 0xCB JUMP JUMPDEST PUSH1 0x2 DUP2 DIV PUSH1 0x1 DUP3 AND DUP1 PUSH2 0xF3 JUMPI PUSH1 0x7F DUP3 AND SWAP2 POP JUMPDEST PUSH1 0x20 DUP3 LT DUP2 EQ ISZERO PUSH2 0x114 JUMPI PUSH4 0x4E487B71 PUSH1 0xE0 SHL PUSH1 0x0 MSTORE PUSH1 0x22 PUSH1 0x4 MSTORE PUSH1 0x24 PUSH1 0x0 REVERT JUMPDEST POP SWAP2 SWAP1 POP JUMP JUMPDEST PUSH2 0x6BB DUP1 PUSH2 0x129 PUSH1 0x0 CODECOPY PUSH1 0x0 RETURN INVALID PUSH1 0x80 PUSH1 0x40 MSTORE CALLVALUE DUP1 ISZERO PUSH2 0x10 JUMPI PUSH1 0x0 DUP1 REVERT JUMPDEST POP PUSH1 0x4 CALLDATASIZE LT PUSH2 0x4C JUMPI PUSH1 0x0 CALLDATALOAD PUSH1 0xE0 SHR DUP1 PUSH4 0x6FDDE03 EQ PUSH2 0x51 JUMPI DUP1 PUSH4 0x84856482 EQ PUSH2 0x6F JUMPI DUP1 PUSH4 0xA91B8314 EQ PUSH2 0x93 JUMPI DUP1 PUSH4 0xC65F7205 EQ PUSH2 0xA8 JUMPI JUMPDEST PUSH1 0x0 DUP1 REVERT JUMPDEST PUSH2 0x59 PUSH2 0xBD JUMP JUMPDEST PUSH1 0x40 MLOAD PUSH2 0x66 SWAP2 SWAP1 PUSH2 0x5EA JUMP JUMPDEST PUSH1 0x40 MLOAD DUP1 SWAP2 SUB SWAP1 RETURN JUMPDEST PUSH2 0x82 PUSH2 0x7D CALLDATASIZE PUSH1 0x4 PUSH2 0x53C JUMP JUMPDEST PUSH2 0x14B JUMP JUMPDEST PUSH1 0x40 MLOAD PUSH2 0x66 SWAP6 SWAP5 SWAP4 SWAP3 SWAP2 SWAP1 PUSH2 0x59F JUMP JUMPDEST PUSH2 0xA6 PUSH2 0xA1 CALLDATASIZE PUSH1 0x4 PUSH2 0x4DB JUMP JUMPDEST PUSH2 0x294 JUMP JUMPDEST STOP JUMPDEST PUSH2 0xB0 PUSH2 0x3B5 JUMP JUMPDEST PUSH1 0x40 MLOAD PUSH2 0x66 SWAP2 SWAP1 PUSH2 0x604 JUMP JUMPDEST PUSH1 0x0 DUP1 SLOAD PUSH2 0xCA SWAP1 PUSH2 0x60D JUMP JUMPDEST DUP1 PUSH1 0x1F ADD PUSH1 0x20 DUP1 SWAP2 DIV MUL PUSH1 0x20 ADD PUSH1 0x40 MLOAD SWAP1 DUP2 ADD PUSH1 0x40 MSTORE DUP1 SWAP3 SWAP2 SWAP1 DUP2 DUP2 MSTORE PUSH1 0x20 ADD DUP3 DUP1 SLOAD PUSH2 0xF6 SWAP1 PUSH2 0x60D JUMP JUMPDEST DUP1 ISZERO PUSH2 0x143 JUMPI DUP1 PUSH1 0x1F LT PUSH2 0x118 JUMPI PUSH2 0x100 DUP1 DUP4 SLOAD DIV MUL DUP4 MSTORE SWAP2 PUSH1 0x20 ADD SWAP2 PUSH2 0x143 JUMP JUMPDEST DUP3 ADD SWAP2 SWAP1 PUSH1 0x0 MSTORE PUSH1 0x20 PUSH1 0x0 KECCAK256 SWAP1 JUMPDEST DUP2 SLOAD DUP2 MSTORE SWAP1 PUSH1 0x1 ADD SWAP1 PUSH1 0x20 ADD DUP1 DUP4 GT PUSH2 0x126 JUMPI DUP3 SWAP1 SUB PUSH1 0x1F AND DUP3 ADD SWAP2 JUMPDEST POP POP POP POP POP DUP2 JUMP JUMPDEST PUSH1 0x2 PUSH1 0x20 MSTORE PUSH1 0x0 SWAP1 DUP2 MSTORE PUSH1 0x40 SWAP1 KECCAK256 DUP1 SLOAD PUSH1 0x1 DUP3 ADD DUP1 SLOAD PUSH1 0x1 PUSH1 0x1 PUSH1 0xA0 SHL SUB SWAP1 SWAP3 AND SWAP3 SWAP2 PUSH2 0x177 SWAP1 PUSH2 0x60D JUMP JUMPDEST DUP1 PUSH1 0x1F ADD PUSH1 0x20 DUP1 SWAP2 DIV MUL PUSH1 0x20 ADD PUSH1 0x40 MLOAD SWAP1 DUP2 ADD PUSH1 0x40 MSTORE DUP1 SWAP3 SWAP2 SWAP1 DUP2 DUP2 MSTORE PUSH1 0x20 ADD DUP3 DUP1 SLOAD PUSH2 0x1A3 SWAP1 PUSH2 0x60D JUMP JUMPDEST DUP1 ISZERO PUSH2 0x1F0 JUMPI DUP1 PUSH1 0x1F LT PUSH2 0x1C5 JUMPI PUSH2 0x100 DUP1 DUP4 SLOAD DIV MUL DUP4 MSTORE SWAP2 PUSH1 0x20 ADD SWAP2 PUSH2 0x1F0 JUMP JUMPDEST DUP3 ADD SWAP2 SWAP1 PUSH1 0x0 MSTORE PUSH1 0x20 PUSH1 0x0 KECCAK256 SWAP1 JUMPDEST DUP2 SLOAD DUP2 MSTORE SWAP1 PUSH1 0x1 ADD SWAP1 PUSH1 0x20 ADD DUP1 DUP4 GT PUSH2 0x1D3 JUMPI DUP3 SWAP1 SUB PUSH1 0x1F AND DUP3 ADD SWAP2 JUMPDEST POP POP POP POP POP SWAP1 DUP1 PUSH1 0x2 ADD DUP1 SLOAD PUSH2 0x205 SWAP1 PUSH2 0x60D JUMP JUMPDEST DUP1 PUSH1 0x1F ADD PUSH1 0x20 DUP1 SWAP2 DIV MUL PUSH1 0x20 ADD PUSH1 0x40 MLOAD SWAP1 DUP2 ADD PUSH1 0x40 MSTORE DUP1 SWAP3 SWAP2 SWAP1 DUP2 DUP2 MSTORE PUSH1 0x20 ADD DUP3 DUP1 SLOAD PUSH2 0x231 SWAP1 PUSH2 0x60D JUMP JUMPDEST DUP1 ISZERO PUSH2 0x27E JUMPI DUP1 PUSH1 0x1F LT PUSH2 0x253 JUMPI PUSH2 0x100 DUP1 DUP4 SLOAD DIV MUL DUP4 MSTORE SWAP2 PUSH1 0x20 ADD SWAP2 PUSH2 0x27E JUMP JUMPDEST DUP3 ADD SWAP2 SWAP1 PUSH1 0x0 MSTORE PUSH1 0x20 PUSH1 0x0 KECCAK256 SWAP1 JUMPDEST DUP2 SLOAD DUP2 MSTORE SWAP1 PUSH1 0x1 ADD SWAP1 PUSH1 0x20 ADD DUP1 DUP4 GT PUSH2 0x261 JUMPI DUP3 SWAP1 SUB PUSH1 0x1F AND DUP3 ADD SWAP2 JUMPDEST POP POP POP POP POP SWAP1 DUP1 PUSH1 0x3 ADD SLOAD SWAP1 DUP1 PUSH1 0x4 ADD SLOAD SWAP1 POP DUP6 JUMP JUMPDEST PUSH1 0x0 DUP3 MLOAD GT PUSH2 0x2A2 JUMPI PUSH1 0x0 DUP1 REVERT JUMPDEST PUSH1 0x0 DUP2 MLOAD GT PUSH2 0x2B0 JUMPI PUSH1 0x0 DUP1 REVERT JUMPDEST CALLER PUSH2 0x2BA JUMPI PUSH1 0x0 DUP1 REVERT JUMPDEST PUSH1 0x1 DUP1 SLOAD SWAP1 PUSH1 0x0 PUSH2 0x2CA DUP4 PUSH2 0x648 JUMP JUMPDEST SWAP1 SWAP2 SSTORE POP POP PUSH1 0x40 DUP1 MLOAD PUSH1 0xA0 DUP2 ADD DUP3 MSTORE CALLER DUP2 MSTORE PUSH1 0x20 DUP1 DUP3 ADD DUP6 DUP2 MSTORE DUP3 DUP5 ADD DUP6 SWAP1 MSTORE PUSH1 0x0 PUSH1 0x60 DUP5 ADD DUP2 SWAP1 MSTORE PUSH1 0x80 DUP5 ADD DUP2 SWAP1 MSTORE PUSH1 0x1 DUP1 SLOAD DUP3 MSTORE PUSH1 0x2 DUP5 MSTORE SWAP5 SWAP1 KECCAK256 DUP4 MLOAD DUP2 SLOAD PUSH1 0x1 PUSH1 0x1 PUSH1 0xA0 SHL SUB NOT AND PUSH1 0x1 PUSH1 0x1 PUSH1 0xA0 SHL SUB SWAP1 SWAP2 AND OR DUP2 SSTORE SWAP1 MLOAD DUP1 MLOAD SWAP4 SWAP5 SWAP2 SWAP4 PUSH2 0x33D SWAP4 SWAP3 DUP6 ADD SWAP3 SWAP2 SWAP1 SWAP2 ADD SWAP1 PUSH2 0x3BB JUMP JUMPDEST POP PUSH1 0x40 DUP3 ADD MLOAD DUP1 MLOAD PUSH2 0x359 SWAP2 PUSH1 0x2 DUP5 ADD SWAP2 PUSH1 0x20 SWAP1 SWAP2 ADD SWAP1 PUSH2 0x3BB JUMP JUMPDEST POP PUSH1 0x60 DUP3 ADD MLOAD DUP2 PUSH1 0x3 ADD SSTORE PUSH1 0x80 DUP3 ADD MLOAD DUP2 PUSH1 0x4 ADD SSTORE SWAP1 POP POP PUSH32 0xA618A6562DA55F1B9488499B3311D789EB26C55486D19378B4BC6ABA964825E3 CALLER DUP4 DUP4 PUSH1 0x0 DUP1 PUSH1 0x40 MLOAD PUSH2 0x3A9 SWAP6 SWAP5 SWAP4 SWAP3 SWAP2 SWAP1 PUSH2 0x59F JUMP JUMPDEST PUSH1 0x40 MLOAD DUP1 SWAP2 SUB SWAP1 LOG1 POP POP JUMP JUMPDEST PUSH1 0x1 SLOAD DUP2 JUMP JUMPDEST DUP3 DUP1 SLOAD PUSH2 0x3C7 SWAP1 PUSH2 0x60D JUMP JUMPDEST SWAP1 PUSH1 0x0 MSTORE PUSH1 0x20 PUSH1 0x0 KECCAK256 SWAP1 PUSH1 0x1F ADD PUSH1 0x20 SWAP1 DIV DUP2 ADD SWAP3 DUP3 PUSH2 0x3E9 JUMPI PUSH1 0x0 DUP6 SSTORE PUSH2 0x42F JUMP JUMPDEST DUP3 PUSH1 0x1F LT PUSH2 0x402 JUMPI DUP1 MLOAD PUSH1 0xFF NOT AND DUP4 DUP1 ADD OR DUP6 SSTORE PUSH2 0x42F JUMP JUMPDEST DUP3 DUP1 ADD PUSH1 0x1 ADD DUP6 SSTORE DUP3 ISZERO PUSH2 0x42F JUMPI SWAP2 DUP3 ADD JUMPDEST DUP3 DUP2 GT ISZERO PUSH2 0x42F JUMPI DUP3 MLOAD DUP3 SSTORE SWAP2 PUSH1 0x20 ADD SWAP2 SWAP1 PUSH1 0x1 ADD SWAP1 PUSH2 0x414 JUMP JUMPDEST POP PUSH2 0x43B SWAP3 SWAP2 POP PUSH2 0x43F JUMP JUMPDEST POP SWAP1 JUMP JUMPDEST JUMPDEST DUP1 DUP3 GT ISZERO PUSH2 0x43B JUMPI PUSH1 0x0 DUP2 SSTORE PUSH1 0x1 ADD PUSH2 0x440 JUMP JUMPDEST PUSH1 0x0 DUP3 PUSH1 0x1F DUP4 ADD SLT PUSH2 0x464 JUMPI DUP1 DUP2 REVERT JUMPDEST DUP2 CALLDATALOAD PUSH8 0xFFFFFFFFFFFFFFFF DUP1 DUP3 GT ISZERO PUSH2 0x47F JUMPI PUSH2 0x47F PUSH2 0x66F JUMP JUMPDEST PUSH1 0x40 MLOAD PUSH1 0x1F DUP4 ADD PUSH1 0x1F NOT SWAP1 DUP2 AND PUSH1 0x3F ADD AND DUP2 ADD SWAP1 DUP3 DUP3 GT DUP2 DUP4 LT OR ISZERO PUSH2 0x4A7 JUMPI PUSH2 0x4A7 PUSH2 0x66F JUMP JUMPDEST DUP2 PUSH1 0x40 MSTORE DUP4 DUP2 MSTORE DUP7 PUSH1 0x20 DUP6 DUP9 ADD ADD GT ISZERO PUSH2 0x4BF JUMPI DUP5 DUP6 REVERT JUMPDEST DUP4 PUSH1 0x20 DUP8 ADD PUSH1 0x20 DUP4 ADD CALLDATACOPY SWAP3 DUP4 ADD PUSH1 0x20 ADD SWAP4 SWAP1 SWAP4 MSTORE POP SWAP4 SWAP3 POP POP POP JUMP JUMPDEST PUSH1 0x0 DUP1 PUSH1 0x40 DUP4 DUP6 SUB SLT ISZERO PUSH2 0x4ED JUMPI DUP2 DUP3 REVERT JUMPDEST DUP3 CALLDATALOAD PUSH8 0xFFFFFFFFFFFFFFFF DUP1 DUP3 GT ISZERO PUSH2 0x504 JUMPI DUP4 DUP5 REVERT JUMPDEST PUSH2 0x510 DUP7 DUP4 DUP8 ADD PUSH2 0x454 JUMP JUMPDEST SWAP4 POP PUSH1 0x20 DUP6 ADD CALLDATALOAD SWAP2 POP DUP1 DUP3 GT ISZERO PUSH2 0x525 JUMPI DUP3 DUP4 REVERT JUMPDEST POP PUSH2 0x532 DUP6 DUP3 DUP7 ADD PUSH2 0x454 JUMP JUMPDEST SWAP2 POP POP SWAP3 POP SWAP3 SWAP1 POP JUMP JUMPDEST PUSH1 0x0 PUSH1 0x20 DUP3 DUP5 SUB SLT ISZERO PUSH2 0x54D JUMPI DUP1 DUP2 REVERT JUMPDEST POP CALLDATALOAD SWAP2 SWAP1 POP JUMP JUMPDEST PUSH1 0x0 DUP2 MLOAD DUP1 DUP5 MSTORE DUP2 JUMPDEST DUP2 DUP2 LT ISZERO PUSH2 0x579 JUMPI PUSH1 0x20 DUP2 DUP6 ADD DUP2 ADD MLOAD DUP7 DUP4 ADD DUP3 ADD MSTORE ADD PUSH2 0x55D JUMP JUMPDEST DUP2 DUP2 GT ISZERO PUSH2 0x58A JUMPI DUP3 PUSH1 0x20 DUP4 DUP8 ADD ADD MSTORE JUMPDEST POP PUSH1 0x1F ADD PUSH1 0x1F NOT AND SWAP3 SWAP1 SWAP3 ADD PUSH1 0x20 ADD SWAP3 SWAP2 POP POP JUMP JUMPDEST PUSH1 0x1 PUSH1 0x1 PUSH1 0xA0 SHL SUB DUP7 AND DUP2 MSTORE PUSH1 0xA0 PUSH1 0x20 DUP3 ADD DUP2 SWAP1 MSTORE PUSH1 0x0 SWAP1 PUSH2 0x5C3 SWAP1 DUP4 ADD DUP8 PUSH2 0x554 JUMP JUMPDEST DUP3 DUP2 SUB PUSH1 0x40 DUP5 ADD MSTORE PUSH2 0x5D5 DUP2 DUP8 PUSH2 0x554 JUMP JUMPDEST PUSH1 0x60 DUP5 ADD SWAP6 SWAP1 SWAP6 MSTORE POP POP PUSH1 0x80 ADD MSTORE SWAP4 SWAP3 POP POP POP JUMP JUMPDEST PUSH1 0x0 PUSH1 0x20 DUP3 MSTORE PUSH2 0x5FD PUSH1 0x20 DUP4 ADD DUP5 PUSH2 0x554 JUMP JUMPDEST SWAP4 SWAP3 POP POP POP JUMP JUMPDEST SWAP1 DUP2 MSTORE PUSH1 0x20 ADD SWAP1 JUMP JUMPDEST PUSH1 0x2 DUP2 DIV PUSH1 0x1 DUP3 AND DUP1 PUSH2 0x621 JUMPI PUSH1 0x7F DUP3 AND SWAP2 POP JUMPDEST PUSH1 0x20 DUP3 LT DUP2 EQ ISZERO PUSH2 0x642 JUMPI PUSH4 0x4E487B71 PUSH1 0xE0 SHL PUSH1 0x0 MSTORE PUSH1 0x22 PUSH1 0x4 MSTORE PUSH1 0x24 PUSH1 0x0 REVERT JUMPDEST POP SWAP2 SWAP1 POP JUMP JUMPDEST PUSH1 0x0 PUSH1 0x0 NOT DUP3 EQ ISZERO PUSH2 0x668 JUMPI PUSH4 0x4E487B71 PUSH1 0xE0 SHL DUP2 MSTORE PUSH1 0x11 PUSH1 0x4 MSTORE PUSH1 0x24 DUP2 REVERT JUMPDEST POP PUSH1 0x1 ADD SWAP1 JUMP JUMPDEST PUSH4 0x4E487B71 PUSH1 0xE0 SHL PUSH1 0x0 MSTORE PUSH1 0x41 PUSH1 0x4 MSTORE PUSH1 0x24 PUSH1 0x0 REVERT INVALID LOG2 PUSH5 0x6970667358 0x22 SLT KECCAK256 0xE7 PUSH5 0x414247C072 0xA7 PUSH10 0x5E6E7CF5C50EF071E752 PUSH14 0xCF0E43A0C28C53D5EB6914276473 PUSH16 0x6C634300080100330000000000000000 "
        },
        "gasEstimates": {
          "creation": {
            "codeDepositCost": "344600",
            "executionCost": "infinite",
            "totalCost": "infinite"
          },
          "external": {
            "images(uint256)": "infinite",
            "name()": "infinite",
            "numImage()": "1072",
            "uploadImage(string,string)": "infinite"
          }
        },
        "methodIdentifiers": {
          "images(uint256)": "84856482",
          "name()": "06fdde03",
          "numImage()": "c65f7205",
          "uploadImage(string,string)": "a91b8314"
        }
      },
      "storageLayout": {
        "storage": [
          {
            "astId": 4,
            "contract": "contracts/ImageDatabase.sol:ImageDatabase",
            "label": "name",
            "offset": 0,
            "slot": "0",
            "type": "t_string_storage"
          },
          {
            "astId": 7,
            "contract": "contracts/ImageDatabase.sol:ImageDatabase",
            "label": "numImage",
            "offset": 0,
            "slot": "1",
            "type": "t_uint256"
          },
          {
            "astId": 12,
            "contract": "contracts/ImageDatabase.sol:ImageDatabase",
            "label": "images",
            "offset": 0,
            "slot": "2",
            "type": "t_mapping(t_uint256,t_struct(Image)23_storage)"
          }
        ],
        "types": {
          "t_address_payable": {
            "encoding": "inplace",
            "label": "address payable",
            "numberOfBytes": "20"
          },
          "t_mapping(t_uint256,t_struct(Image)23_storage)": {
            "encoding": "mapping",
            "key": "t_uint256",
            "label": "mapping(uint256 => struct ImageDatabase.Image)",
            "numberOfBytes": "32",
            "value": "t_struct(Image)23_storage"
          },
          "t_string_storage": {
            "encoding": "bytes",
            "label": "string",
            "numberOfBytes": "32"
          },
          "t_struct(Image)23_storage": {
            "encoding": "inplace",
            "label": "struct ImageDatabase.Image",
            "members": [
              {
                "astId": 14,
                "contract": "contracts/ImageDatabase.sol:ImageDatabase",
                "label": "author",
                "offset": 0,
                "slot": "0",
                "type": "t_address_payable"
              },
              {
                "astId": 16,
                "contract": "contracts/ImageDatabase.sol:ImageDatabase",
                "label": "hash",
                "offset": 0,
                "slot": "1",
                "type": "t_string_storage"
              },
              {
                "astId": 18,
                "contract": "contracts/ImageDatabase.sol:ImageDatabase",
                "label": "description",
                "offset": 0,
                "slot": "2",
                "type": "t_string_storage"
              },
              {
                "astId": 20,
                "contract": "contracts/ImageDatabase.sol:ImageDatabase",
                "label": "tipAmount",
                "offset": 0,
                "slot": "3",
                "type": "t_uint256"
              },
              {
                "astId": 22,
                "contract": "contracts/ImageDatabase.sol:ImageDatabase",
                "label": "tipGoal",
                "offset": 0,
                "slot": "4",
                "type": "t_uint256"
              }
            ],
            "numberOfBytes": "160"
          },
          "t_uint256": {
            "encoding": "inplace",
            "label": "uint256",
            "numberOfBytes": "32"
          }
        }
      },
      "userdoc": {
        "kind": "user",
        "methods": {},
        "version": 1
      }
    }
  }
}